{"abi":[{"type":"constructor","inputs":[{"name":"_executor","type":"address","internalType":"address"}],"stateMutability":"payable"},{"type":"receive","stateMutability":"payable"},{"type":"function","name":"call","inputs":[{"name":"_to","type":"address","internalType":"address payable"},{"name":"_value","type":"uint256","internalType":"uint256"},{"name":"_data","type":"bytes","internalType":"bytes"}],"outputs":[{"name":"","type":"bytes","internalType":"bytes"}],"stateMutability":"payable"},{"type":"function","name":"uniswapWeth","inputs":[{"name":"_wethAmountToFirstMarket","type":"uint256","internalType":"uint256"},{"name":"_ethAmountToCoinbase","type":"uint256","internalType":"uint256"},{"name":"_targets","type":"address[]","internalType":"address[]"},{"name":"_payloads","type":"bytes[]","internalType":"bytes[]"}],"outputs":[],"stateMutability":"payable"}],"bytecode":{"object":"0x60c06040526040516109ef3803806109ef833981016040819052610022916100a8565b336080526001600160a01b03811660a05234156100a25773c02aaa39b223fe8d0a0e5c4f27ead9083c756cc26001600160a01b031663d0e30db0346040518263ffffffff1660e01b81526004016000604051808303818588803b15801561008857600080fd5b505af115801561009c573d6000803e3d6000fd5b50505050505b506100d8565b6000602082840312156100ba57600080fd5b81516001600160a01b03811681146100d157600080fd5b9392505050565b60805160a0516108f36100fc600039600061014501526000608401526108f36000f3fe60806040526004361061002d5760003560e01c80636dbf2fa014610039578063ecd494b31461006257600080fd5b3661003457005b600080fd5b61004c6100473660046104d3565b610077565b6040516100599190610580565b60405180910390f35b610075610070366004610707565b61013a565b005b6060336001600160a01b037f000000000000000000000000000000000000000000000000000000000000000016146100ae57600080fd5b6001600160a01b0385166100c157600080fd5b600080866001600160a01b03168686866040516100df9291906107de565b60006040518083038185875af1925050503d806000811461011c576040519150601f19603f3d011682016040523d82523d6000602084013e610121565b606091505b50915091508161013057600080fd5b9695505050505050565b336001600160a01b037f0000000000000000000000000000000000000000000000000000000000000000161461016f57600080fd5b805182511461017d57600080fd5b6040516370a0823160e01b815230600482015260009073c02aaa39b223fe8d0a0e5c4f27ead9083c756cc2906370a0823190602401602060405180830381865afa1580156101cf573d6000803e3d6000fd5b505050506040513d601f19601f820116820180604052508101906101f391906107ee565b905073c02aaa39b223fe8d0a0e5c4f27ead9083c756cc26001600160a01b031663a9059cbb8460008151811061022b5761022b610807565b6020026020010151876040518363ffffffff1660e01b81526004016102659291906001600160a01b03929092168252602082015260400190565b6020604051808303816000875af1158015610284573d6000803e3d6000fd5b505050506040513d601f19601f820116820180604052508101906102a8919061081d565b5060005b8351811015610368576000808583815181106102ca576102ca610807565b60200260200101516001600160a01b03168584815181106102ed576102ed610807565b60200260200101516040516103029190610846565b6000604051808303816000865af19150503d806000811461033f576040519150601f19603f3d011682016040523d82523d6000602084013e610344565b606091505b50915091508161035357600080fd5b5050808061036090610878565b9150506102ac565b506040516370a0823160e01b815230600482015260009073c02aaa39b223fe8d0a0e5c4f27ead9083c756cc2906370a0823190602401602060405180830381865afa1580156103bb573d6000803e3d6000fd5b505050506040513d601f19601f820116820180604052508101906103df91906107ee565b90506103eb8583610891565b81116103f657600080fd5b846000036104055750506104b5565b47858110156104835773c02aaa39b223fe8d0a0e5c4f27ead9083c756cc2632e1a7d4d61043283896108aa565b6040518263ffffffff1660e01b815260040161045091815260200190565b600060405180830381600087803b15801561046a57600080fd5b505af115801561047e573d6000803e3d6000fd5b505050505b604051419087156108fc029088906000818181858888f193505050501580156104b0573d6000803e3d6000fd5b505050505b50505050565b6001600160a01b03811681146104d057600080fd5b50565b600080600080606085870312156104e957600080fd5b84356104f4816104bb565b935060208501359250604085013567ffffffffffffffff8082111561051857600080fd5b818701915087601f83011261052c57600080fd5b81358181111561053b57600080fd5b88602082850101111561054d57600080fd5b95989497505060200194505050565b60005b8381101561057757818101518382015260200161055f565b50506000910152565b602081526000825180602084015261059f81604085016020870161055c565b601f01601f19169190910160400192915050565b634e487b7160e01b600052604160045260246000fd5b604051601f8201601f1916810167ffffffffffffffff811182821017156105f2576105f26105b3565b604052919050565b600067ffffffffffffffff821115610614576106146105b3565b5060051b60200190565b6000601f838184011261063057600080fd5b82356020610645610640836105fa565b6105c9565b82815260059290921b8501810191818101908784111561066457600080fd5b8287015b848110156106fb57803567ffffffffffffffff808211156106895760008081fd5b818a0191508a603f83011261069e5760008081fd5b858201356040828211156106b4576106b46105b3565b6106c5828b01601f191689016105c9565b92508183528c818386010111156106dc5760008081fd5b8181850189850137506000908201870152845250918301918301610668565b50979650505050505050565b6000806000806080858703121561071d57600080fd5b843593506020808601359350604086013567ffffffffffffffff8082111561074457600080fd5b818801915088601f83011261075857600080fd5b8135610766610640826105fa565b81815260059190911b8301840190848101908b83111561078557600080fd5b938501935b828510156107ac57843561079d816104bb565b8252938501939085019061078a565b9650505060608801359250808311156107c457600080fd5b50506107d28782880161061e565b91505092959194509250565b8183823760009101908152919050565b60006020828403121561080057600080fd5b5051919050565b634e487b7160e01b600052603260045260246000fd5b60006020828403121561082f57600080fd5b8151801515811461083f57600080fd5b9392505050565b6000825161085881846020870161055c565b9190910192915050565b634e487b7160e01b600052601160045260246000fd5b60006001820161088a5761088a610862565b5060010190565b808201808211156108a4576108a4610862565b92915050565b818103818111156108a4576108a461086256fea26469706673582212201fe9e0f213107138bfbddcac1ea9dba28bf03266201eef0c278def20fe7ca98a64736f6c63430008140033","linkReferences":{}},"methodIdentifiers":{"call(address,uint256,bytes)":"6dbf2fa0","uniswapWeth(uint256,uint256,address[],bytes[])":"ecd494b3"},"id":0}